:020000040800F2
:10000000B0070020550A0008F9050008FB050008A4
:10001000FF050008030600080706000800000000AE
:100020000000000000000000000000000B060008B7
:100030000D060008000000000F0600081106000869
:100040006F0A00086F0A00086F0A00086F0A0008AC
:100050006F0A00086F0A00086F0A00086F0A00089C
:100060006F0A00086F0A00086F0A00086F0A00088C
:100070006F0A00086F0A00086F0A00086F0A00087C
:100080006F0A00086F0A00086F0A00086F0A00086C
:100090006F0A00086F0A00086F0A00086F0A00085C
:1000A0006F0A00086F0A00086F0A00086F0A00084C
:1000B0006F0A00086F0A00086F0A00086F0A00083C
:1000C0006F0A00086F0A00086F0A00086F0A00082C
:1000D0006F0A0008CB0900086F0A00086F0A0008C1
:1000E0006F0A00086F0A00086F0A00086F0A00080C
:1000F0006F0A00086F0A00086F0A00086F0A0008FC
:100100006F0A00086F0A00086F0A00086F0A0008EB
:100110006F0A00086F0A00086F0A00086F0A0008DB
:100120006F0A00086F0A00086F0A00086F0A0008CB
:1001300000F002F800F045F80AA090E8000C8244B4
:100140008344AAF10107DA4501D100F03AF8AFF291
:10015000090EBAE80F0013F0010F18BFFB1A43F0A5
:10016000010318470C3E00002C3E0000103A24BF4B
:1001700078C878C1FAD8520724BF30C830C144BF0C
:1001800004680C607047000000230024002500264E
:10019000103A28BF78C1FBD8520728BF30C148BFEA
:1001A0000B607047642903F09984782903F0D284A6
:1001B000732903F05586002070471FB51FBD10B589
:1001C00010BD03F07FFE1146FFF7F7FF00F04FF977
:1001D00003F09DFE03B4FFF7F2FF03BC00F09AFBAF
:1001E00000B593B0BFA103C9CDE90801BFA0006865
:1001F0000790BFA000680690BEA000680590BEA052
:10020000006804900798CDF832000698CDF83600C3
:100210000598CDF83A0008980B90BDF82400ADF889
:1002200030000498CDF83E0001208DF842000BA963
:10023000002001F0D6FE0BA9012001F0D2FE11A989
:10024000082001F0B4FD11A9ACA003F0EBFB9DF870
:1002500031009DF830109DF82F20CDE9002102904B
:100260009DF82E309DF82D209DF82C10A9A003F0AC
:10027000D9FB0BA8407A00900BA8037AC2799DF8AD
:100280003210AEA003F0CEFB0BA8407C00900BA870
:10029000037CC27B9DF83A10ADA003F0C3FB0BA812
:1002A000407B00900BA8037BC27A9DF83610ADA06E
:1002B00003F0B8FB0BA8407D00900BA8037DC27C27
:1002C0009DF83E10ACA003F0ADFBB0A003F0AAFB7C
:1002D0000021084601F021FD32208DF828004FF45E
:1002E0007A70ADF82A000AA801F0FFFD13B000BD36
:1002F00000BFAD49098901F002010029F9D0AA49DE
:10030000888100BFA849098901F001010029F9D0BD
:10031000A5498989704700BFA348008900F0020001
:100320000028F9D0FF20A049888100BF9E4800899D
:1003300000F001000028F9D09B488089C0B27047C6
:1003400010B51021994800F022FD10BD10B5102104
:10035000964800F01AFD10BD012080F3108800BF00
:100360007047002080F3108800BF704700B587B049
:10037000012141F2050000F017FF1020ADF8180030
:1003800003208DF81A0010208DF81B0006A987485D
:1003900000F04EFC1021854800F0F7FC0820ADF875
:1003A000180001208DF81A0010208DF81B0006A9F6
:1003B0007E4800F03DFC08217C4800F0E6FCE0208F
:1003C000ADF8180003208DF81A0018208DF81B00D6
:1003D00006A9764800F02CFCE021744800F0D5FC1A
:1003E0000020ADF804004FF48270ADF80600002044
:1003F000ADF80800ADF80A00ADF80C004FF400703D
:10040000ADF80E000020ADF81000ADF81200072086
:10041000ADF8140001A9644801F054F901216248C3
:1004200001F0F5F907B000BD10B5AFF2C901AFF2A8
:10043000D70001F0B5FAAFF2EB01AFF2FB0001F02B
:10044000BEFAAFF25311AFF2311001F0DDFA10BD78
:1004500010B5FFF78BFF45F6FF7401E0601E84B214
:10046000002CFBDCFFF7E0FFFFF7BAFE10BDADF597
:10047000816D4FA00068CDF804044FF4FA544FF496
:10048000806101A803F056FC00F0DAF94FF4A06097
:1004900000F000FB4FF4E13000F04BFA45A003F010
:1004A000C1FA00F0A7F948A003F0BCFAFFF7D0FFAB
:1004B0004AA003F0B7FA13E023460DF2044201A963
:1004C000002003F007F9002049490860322000F0BD
:1004D000F4F901204749C1F89401322000F0EDF908
:1004E000EAE700000008DC1111110000C0A8325832
:1004F000FFFFFF00C0A83201080808080D0A3D3DB3
:100500003D202573204E455420434F4E46203D3D0F
:100510003D0D0A004D41433A20253032583A2530EE
:1005200032583A253032583A253032583A2530324E
:10053000583A253032580D0A000000005349503A0D
:100540002025642E25642E25642E25640D0A0000C6
:100550004741523A2025642E25642E25642E2564B9
:100560000D0A00005355423A2025642E25642E259D
:10057000642E25640D0A0000444E533A2025642E53
:1005800025642E25642E25640D0A00003D3D3D3D69
:100590003D3D3D3D3D3D3D3D3D3D3D3D3D3D3D3D8B
:1005A0003D3D0D0A00000000003001400008014000
:1005B000C0A83264757361727420696E6974656471
:1005C000202E2E2E2E2E2E004C454420696E69744E
:1005D0006564202E2E2E2E2E2E000000573535302D
:1005E0003020696E69746564202E2E2E2E2E2E000A
:1005F0009481214200802142704700BFFEE700BF86
:10060000FEE700BFFEE700BFFEE770477047704798
:10061000704700000CB50020019000906C48006805
:1006200040F480306A49086000BF6948006800F4FF
:10063000003000900198401C0190009818B9019872
:10064000B0F5A06FF1D16248006800F4003010B13D
:100650000120009001E0002000900098012843D183
:100660005C48006840F010005A490860084600687D
:1006700020F0030008600846006840F002000860AF
:1006800053484068524948600846406848600846F8
:10069000406840F4806048600846406820F47C1060
:1006A00048600846406840F4E81048600846006822
:1006B00040F08070086000BF4548006800F000709E
:1006C0000028F9D04248406820F0030040494860C3
:1006D0000846406840F00200486000BF3C4840685F
:1006E00000F00C000828F9D10CBD10B5FFF792FFFF
:1006F00010BD10B53648006840F00100344908606C
:100700000846406834490840314948600846006856
:10071000324908402E4908600846006820F48020CD
:1007200008600846406820F4FE0048604FF41F004F
:100730008860FFF7DAFF4FF000602949086010BDBC
:1007400010B5002100200022214B5B6803F00C0152
:1007500021B1042906D0082928D107E0214B224CD9
:10076000236027E01F4B204C236023E0184B5B687D
:1007700003F47010164B5B6803F48032022303EB22
:10078000904022B9194B4343174C23600DE0104BA6
:100790005B6803F4003323B1144B4343124C2360D2
:1007A00003E0104B4343104C236003E00D4B0E4C11
:1007B000236000BF00BF064B5B68C3F303130C4C00
:1007C000E15C094B1B68CB40074C236010BD000067
:1007D00000100240002002400000FFF8FFFFF6FE7C
:1007E00008ED00E000127A000000002000093D0042
:1007F0000400002008B50121482000F0D5FC20208D
:10080000ADF8000010208DF8030003208DF80200E1
:100810006946094800F00CFA2021074800F0B5FAB3
:100820002020ADF800006946044800F001FA2021BC
:10083000024800F0AAFA08BD000C0140001801406F
:1008400010B56FF0040000F074F92E4800682E49CE
:10085000B0FBF1F02D4908700846007800EB40012C
:10086000C1EBC0104FF6FF7101EAC00028490880B3
:1008700010BD0146254A12784A434FF0E0235A61E1
:1008800000229A611A46126942F001021A6100BF01
:100890004FF0E022106900F001021AB100F480323A
:1008A000002AF5D04FF0E022126922F001024FF049
:1008B000E0231A6100229A6170470146144A1288A7
:1008C0004A434FF0E0235A6100229A611A461269A6
:1008D00042F001021A6100BF4FF0E022106900F0FF
:1008E00001021AB100F48032002AF5D04FF0E02264
:1008F000126922F001024FF0E0231A6100229A618E
:10090000704700000000002000127A001400002050
:1009100016000020014600BF704700BF494A1288F8
:1009200002F04002002AF9D0C2B2464B1B1D1A80C9
:10093000704710B586B00446012144F2040000F06F
:1009400033FC4FF40070ADF8140003208DF816004E
:1009500018208DF8170005A93B4800F069F94FF4FD
:100960008060ADF8140004208DF8170005A9364802
:1009700000F05EF925208DF8000003208DF80100BD
:100980008DF8020001208DF80300684600F087F81A
:1009900001940020ADF80800ADF80A00ADF80C0095
:1009A000ADF810000C20ADF80E0001A9254800F0AC
:1009B000A2FC012240F22551224800F034FD012121
:1009C000204800F024FD06B010BD10B540F22551BE
:1009D0001C4800F00DFE10B31A4800F089FDC4B2A7
:1009E0001A48008800F40040C8B91848008800F48C
:1009F000804060B10A2C03D000201449088020E018
:100A00001248008840F400401049088019E00D2C7D
:100A100006D10E48008840F480400C49088010E060
:100A20000A480088C0F30D0009490C5407480088A3
:100A3000401C0649088008460088C72801DD0020C0
:100A4000088010BD00380140000801401C00002053
:100A5000780000200948804709480047FEE7FEE784
:100A6000FEE7FEE7FEE7FEE7FEE7FEE7FEE7FEE75E
:100A700004480549054A064B70470000F306000884
:100A800031010008B0010020B0070020B0030020B1
:100A9000B003002031490143314A1160704770B5FD
:100AA000002100230F22C47804B32D4C246804F4E1
:100AB000E064C4F5E064210AC1F10403CA4044784B
:100AC00004FA03F18478144021430901254C067887
:100AD000A155047804F01F050124AC4005786D1180
:100AE000AD0005F1E025C5F8004109E0047804F007
:100AF0001F050124AC401C4D0678761145F82640B0
:100B000070BD1A4A0A400243154B1B1F1A607047FA
:100B100039B1134A121D12680243114B1B1D1A6092
:100B200006E00F4A121D126882430D4B1B1D1A600E
:100B30007047042808D14FF0E021096941F0040111
:100B40004FF0E022116107E04FF0E021096921F048
:100B500004014FF0E0221161704700000000FA0527
:100B60000CED00E000E400E080E100E080FFFF1F0A
:100B700010B50446CC48844208D10121042000F07D
:100B80002DFB0021042000F029FB46E0C7488442E9
:100B900008D10121082000F021FB0021082000F0ED
:100BA0001DFB3AE0C248844208D10121102000F028
:100BB00015FB0021102000F011FB2EE0BD488442FF
:100BC00008D10121202000F009FB0021202000F0A5
:100BD00005FB22E0B848844208D10121402000F002
:100BE000FDFA0021402000F0F9FA16E0B3488442F3
:100BF00008D10121802000F0F1FA0021802000F0CE
:100C0000EDFA0AE0AE48844207D10121801500F0D8
:100C1000E5FA0021A01500F0E1FA10BD10B50121A0
:100C2000084600F0DBFA0021012000F0D7FA10BDE1
:100C30002DE9F04102460025002600200023002473
:100C4000002791F803C00CF00F0591F803C00CF0D9
:100C5000100CBCF1000F03D091F802C04CEA05055E
:100C600091F800C0BCF1000F31D0146800202BE0D7
:100C70004FF0010C0CFA00F3B1F800C00CEA0306C7
:100C80009E4220D183004FF00F0C0CFA03F7BC43B7
:100C900005FA03FC4CEA040491F803C0BCF1280FE8
:100CA00006D14FF0010C0CFA00FCC2F814C00AE0A7
:100CB00091F803C0BCF1480F05D14FF0010C0CFABC
:100CC00000FCC2F810C0401C0828D1D31460B1F851
:100CD00000C0BCF1FF0F34DD546800202EE000F1AD
:100CE000080C4FF0010808FA0CF3B1F800C00CEA48
:100CF00003069E4221D183004FF00F0C0CFA03F73C
:100D0000BC4305FA03FC4CEA040491F803C0BCF1AF
:100D1000280F05D100F1080C08FA0CF8C2F814806D
:100D200091F803C0BCF1480F07D100F1080C4FF057
:100D3000010808FA0CF8C2F81080401C0828CED32D
:100D40005460BDE8F0814FF6FF710180022181708F
:100D50000421C17070470246002093680B400BB11C
:100D6000012000E0002070470146886880B270478B
:100D700002460020D3680B400BB1012000E00020A8
:100D800070470146C86880B2704701617047416191
:100D900070470AB1016100E041617047C16070476E
:100DA0004FF480320A438261816182618269826983
:100DB000704702460020434B18684FF68073184076
:100DC00040EA021008433F4B186070473E49C86133
:100DD0007047F0B50A46002300240021002500F0EA
:100DE0000046B6F1004F02D1364EF16901E0354EB2
:100DF0007168C0F3034583B200F44016B6F5401F96
:100E000008D121F070612F4E766826F070662D4F64
:100E10007E6012E000F48016B6F5801F06D103262E
:100E200006FA05F4A14341F0706106E0460D360173
:100E300003FA06F6B14341F0706122B1460D360166
:100E400003FA06F6314300F00046B6F1004F02D136
:100E50001C4EF16101E01B4E7160F0BD30B5002207
:100E60008B071C0F0F2303FA04F2164B08338C1068
:100E700053F824309343134C08348D1044F8253034
:100E800023468C1053F824308C07240F00FA04F406
:100E900023430C4C08348D1044F8253030BD0A49EA
:100EA000DC3108607047000000080140000C014080
:100EB000001001400014014000180140001C0140D6
:100EC000002001400000014000002042DF4800688F
:100ED00040F00100DD49086008464068DC490840F0
:100EE000DA49486008460068DA490840D74908608E
:100EF0000846006820F4802008600846406820F416
:100F0000FE0048604FF41F0088607047CF490968B1
:100F100021F48031CD4A11601146096821F4802105
:100F20001160B0F5803F03D0B0F5802F0ED106E000
:100F3000C649096841F48031C44A116007E0C349D9
:100F4000096841F4A021C14A116000E000BF00BF60
:100F5000704710B501460022002300204A11012AE3
:100F600002D1BA4C236806E0022A02D1B74C236AA8
:100F700001E0B64C636A01F01F02012494401C405A
:100F80000CB1012000E0002010BD38B50020009019
:100F90000024002500BF3120FFF7DBFF0546009845
:100FA000401C00900098B0F5A06F01D0002DF2D049
:100FB0003120FFF7CEFF08B1012400E000242046D5
:100FC00038BD01460020A14A106820F0F80040EA30
:100FD000C10010607047A0490860704702460020B9
:100FE0009A4B586820F47C1042EA01031843974B4F
:100FF0005860704798490866704701460020934A38
:10100000506820F003000843506070478F484068E4
:1010100000F00C007047014600208C4A506820F018
:10102000F00008435060704701460020874A50682E
:1010300020F4E06008435060704701460020834A76
:10104000506820F4605040EAC1005060704729B1F8
:101050007E4A527A02437D4B5A7204E07B4A527AAE
:1010600082437A4B5A7270477B49D8310860704787
:1010700001460020754A506820F440400843506003
:1010800070470021714A20321170704A82F8201096
:10109000012802D004280AD104E001216B4A203241
:1010A000117005E00521694A2032117000E000BF8F
:1010B00000BF70476949086070476449096A014385
:1010C000624A11627047654944390860704730B51B
:1010D00000210022002400235C4D6D6805F00C0106
:1010E00021B1042905D0082923D105E05C4D056014
:1010F00022E05B4D05601FE0544D6D6805F47012F1
:10110000524D6D6805F48034022505EB92421CB9FE
:10111000544D554305600BE04C4D6D6805F40035AA
:101120001DB1504D5543056002E04D4D55430560DE
:1011300002E04B4D056000BF00BF444D6D6805F0F7
:10114000F0010909484D6B5C0568DD4045603F4D85
:101150006D6805F4E061090A434D6B5C4568DD404C
:1011600085603A4D6D6805F46051C90A3E4D6B5C6F
:101170004568DD40C560354D6D6805F44041890B1B
:101180003A4D6B5CC568B5FBF3F5056130BD29B11F
:101190002E4A526902432D4B5A6104E02B4A526990
:1011A00082432A4B5A61704729B1284A9269024307
:1011B000264B9A6104E0254A92698243234B9A6147
:1011C000704729B1214AD2690243204BDA6104E019
:1011D0001E4AD26982431D4BDA61704729B11B4A0E
:1011E000D2680243194BDA6004E0184AD26882439D
:1011F000164BDA60704729B1144A12690243134B47
:101200001A6104E0114A12698243104B1A61704757
:1012100012494039086070470F49C86470470B494C
:10122000C87170470948406A40F0807007494862B9
:10123000704701460020054A92680A400AB1012021
:1012400000E000207047014988727047001002409A
:101250000000FFF8FFFFF6FE000042428004424219
:1012600000127A0000093D001E0000202E00002020
:1012700010B50446FB48844209D101218803FFF7D9
:10128000ADFF00214FF48040FFF7A8FF32E0F648A1
:10129000844209D101214804FFF7ADFF00214FF43A
:1012A0000030FFF7A8FF25E0F048844209D1012172
:1012B0008804FFF7A0FF00214FF48020FFF79BFF79
:1012C00018E0EB48844209D10121C804FFF793FFDD
:1012D00000214FF40020FFF78EFF0BE0E548844229
:1012E00008D101210805FFF786FF00214FF4801087
:1012F000FFF781FF10BD2DE9F04786B005460E4689
:101300000024A24600BFA1460027B08900B100BF5B
:101310002F462C8A4CF6FF700440F08804432C8240
:10132000AC894EF6F3100440B088318908437189C6
:1013300008430443AC81AC8A4FF6FF400440B089B7
:101340000443AC8201A8FFF7C2FEC648874202D11F
:10135000DDF810A001E0DDF80CA0A88900F4004041
:1013600040B10AEBCA0000EB0A1031684900B0FB3B
:10137000F1F807E00AEBCA0000EB0A1031688900B7
:10138000B0FBF1F86420B8FBF0F0040120096421FF
:1013900001FB1089A88900F4004040B1322000EB25
:1013A000C900B0FBF1F000F00700044308E0322070
:1013B00000EB09106421B0FBF1F000F00F000443D2
:1013C0002C8106B0BDE8F0874FF416510160002172
:1013D0008180C18001810C21418100218181704780
:1013E00010B502460020108A4FF2FF0318400B8808
:1013F0004C8823438C882343CC8823431843108292
:1014000010BD0021018041808180C180704721B1E1
:10141000828942F40052828104E082894DF6FF7392
:101420001A4082817047F0B503460024002600254B
:10143000002040F66A17B94200D100BF1846C1F338
:10144000421401F01F06012707FA06F5012C01D10D
:101450000C3004E0022C01D1103000E014301AB13D
:1014600007682F43076002E00768AF430760F0BDDD
:101470001AB1838A0B43838202E0838A8B4383827F
:101480007047028A4FF6F0731A400282028A0A43BA
:101490000282704782894FF2FF731A4082818289EB
:1014A0000A438281704721B1828942F0020282811F
:1014B00004E082894FF6FD731A4082817047028AE8
:1014C0004FF6DF731A400282028A0A430282704793
:1014D00021B1028A42F48042028204E0028A4BF681
:1014E000FF731A4002827047C1F30802828070477E
:1014F00001468888C0F308007047818941F00101E6
:1015000081817047028BD2B20283028B42EA0122B0
:1015100002837047028B02F47F420283028B0A43EC
:101520000283704721B1828A42F02002828204E065
:10153000828A4FF6DF731A408282704721B1828A15
:1015400042F01002828204E0828A4FF6EF731A4062
:101550008282704721B1828A42F00802828204E0CE
:10156000828A4FF6F7731A408282704721B18289CE
:1015700042F40042828103E08289C2F30E0282813A
:10158000704721B1828A42F40062828204E0828A3A
:101590004FF2FF731A4082827047828A4FF6FB73C4
:1015A0001A408282828A0A438282704721B1828AEB
:1015B00042F00202828204E0828A4FF6FD731A40F2
:1015C0008282704702460020B1F5007F00D100BF43
:1015D00013880B400BB1012000E00020704701F49C
:1015E0000072B2F5007F00D100BFCA43028070478D
:1015F00070B50246002400230025002040F66A163C
:10160000B14200D100BFC1F3421501F01F03012612
:1016100006FA03F3012D02D19689334006E0022D2C
:1016200002D1168A334001E0968A33400C1201261B
:1016300006FA04F41688344013B10CB1012000E01E
:10164000002070BD10B50022002340F66A14A142AC
:1016500000D100BF0A1201249440A3B2DC430480ED
:1016600010BD000000380140004400400048004028
:10167000004C00400050004010B50446BE48844273
:1016800008D101218014FFF7A9FD0021A014FFF764
:10169000A5FD16E0B948844208D101210014FFF7E6
:1016A000AAFD00212014FFF7A6FD0AE0B4488442F9
:1016B00007D10121C013FFF79EFD0021E013FFF7C2
:1016C0009AFD10BD10B50022028802F441520B8829
:1016D0004C8823438C882343CC8823430C892343A1
:1016E0004C8923438C892343CC8923431A430280AA
:1016F000838B4FF2FF74234083830B8A038210BDD8
:101700002DE9F04F85B005460C464FF00009022741
:101710004FF000084FF0010B0026B246A88B4FF2A5
:1017200040010840A88302202884B5F81C90A068D6
:10173000022801D100BF38E0A08810B94FF0010B9A
:1017400001E04FF0020B8D48854200D100E000BF60
:101750006846FFF7BCFCDDF800A0E088B0F5007F2C
:101760000AD14FEA1A2000EB80004000A168B0FBCC
:10177000F1F0401D86B20BE04FEA4B10BAFBF0F0DF
:1017800000EB80004000A168B0FBF1F0401D86B284
:101790000A20B6FBF0F606F00108A6EB0800C0F33D
:1017A0004F074FF6FF7000EA0828022F01DBFF2FDA
:1017B00002DD02274FF00008E08840EA08003843C5
:1017C0002884A088A18908436188084321880843A8
:1017D00040F4006040EA0909A5F81C9005B0BDE896
:1017E000F08F0021018041808180C1800181418191
:1017F0008181C181072101827047002101804180E0
:101800008180C1800221816000218181704721B1E6
:10181000028842F04002028004E002884FF6BF7363
:101820001A400280704721B1828B42F48062828329
:1018300004E0828B4FF6FF331A408283704730B545
:10184000002400230C110125A540ABB21AB18588F4
:101850001D43858002E085889D43858030BD1AB197
:1018600083880B43838002E083888B4383807047A7
:10187000818170470146888970474FF6FF62914227
:1018800004D0028842F48072028004E002884FF69D
:10189000FF631A400280704721B1828842F004023F
:1018A000828004E082884FF6FB731A408280704782
:1018B00002884FF2FF731A40028002880A430280B6
:1018C0007047018841F480510180704721B102883E
:1018D00042F40052028004E002884DF6FF731A4081
:1018E0000280704702460020012901D0108B00E0E1
:1018F000908A70470146088A7047B1F5804F04D13D
:10190000028842F48042028004E002884BF6FF73B2
:101910001A40028070470246002013890B400BB129
:10192000012000E000207047CA4302817047F0B5F3
:101930000246002000240023002501F00F070126A5
:10194000BE40B4B20B1101269E40B3B2968806EA9F
:1019500003051689264016B10DB1012000E00020D4
:10196000F0BD10B5002201F00F040123A3409AB28C
:10197000D343038110BD0000003001400038004017
:10198000003C004070477047704770470146087838
:10199000704701707047002070477047704770476C
:1019A00000B141B9AFF22302F84BDA60AFF229037C
:1019B000F64A136102E0F54AD0601161704700B148
:1019C00041B9AFF23B02F14B5A61AFF24103EF4A2A
:1019D000936102E0ED4A50619161704700BFEB4AAC
:1019E000128802F48072002AF9D000B141B9AFF236
:1019F0006302E64BDA61AFF26503E44A136202E088
:101A0000E24AD0611162704700BFE04A128802F4D6
:101A10000072002AF9D000B141B9AFF28502DB4B68
:101A2000DA61AFF28903D94A136202E0D74AD06182
:101A30001162704700BFD54A128802F40072002A72
:101A4000F9D000B139B9AFF2AB03D04A5362AFF26B
:101A5000B103936202E0CD4A50629162704710B5C3
:101A600000244FF4385001F05FFB00F0010000B19A
:101A70000124204610BD10B500244FF4385001F069
:101A800053FB00F03800302801D1012400E000248D
:101A9000204610BD10B54FF4385001F045FB044608
:101AA00024F0800421464FF4385001F075FB4FF4C8
:101AB000385001F039FB044644F0800421464FF4CD
:101AC000385001F069FB10BD70B5054600244FF495
:101AD000385001F029FB044604F0400010B94FF0E3
:101AE000FF3070BD24F03804012D02D144F03004E1
:101AF00001E044F0380421464FF4385001F04CFB2B
:101B0000FFF7C8FF4FF4385001F00EFB0446012DDB
:101B100004D104F0300030B10020E2E704F03800D6
:101B200008B10020DDE74FF0FF30DAE770B504467A
:101B300000254FF4385001F0F7FA0546C5F3801040
:101B4000207005F03800202802D0382803D100BFCB
:101B50000120607002E00020607000BF00BF05F04F
:101B60003800102805D0182802D0202804D100BF42
:101B700000BF0120A07002E00020A07000BF00BFE5
:101B800005F03800082805D0182802D0202804D1F4
:101B900000BF00BF0120E07002E00020E07000BF45
:101BA00000BF70BD70B5054600242878012802D119
:101BB00044F0400401E024F040046878012802D198
:101BC00044F0380412E0E878012808D1A878012808
:101BD00002D144F0180409E044F0080406E0A878B3
:101BE000012802D144F0100400E000BF21464FF468
:101BF000385001F0D1FAFFF74DFF70BD70B50026E7
:101C0000002400254FF4B05001F08EFA06464FF440
:101C1000C05001F089FA0446254606EB052085B23E
:101C2000284670BD70B50446E5B2261229464FF429
:101C3000B05001F0B1FA31464FF4C05001F0ACFAA7
:101C400070BD70B50026002400254FF4A85001F0A7
:101C50006BFA00F0F0064FF4B85001F065FA044654
:101C6000254606EB052085B2284670BD70B50546B1
:101C7000ECB22E1204F0F0014FF4A85001F08CFAEF
:101C800000240EE00120A040304040B1A100491CDA
:101C90004FF4007202EBC1001F2101F07DFA601CBD
:101CA000C4B2082CEEDB70BD00B585B006226946D3
:101CB0004FF4106001F0A8FA042204A9900101F089
:101CC000A3FA042203A94FF4A06001F09DFA0422B4
:101CD00002A94FF4706001F097FA8021002001F012
:101CE0005BFA002001F020FA062269464FF41060EA
:101CF00001F0CEFA042204A9900101F0C9FA0422ED
:101D000003A94FF4A06001F0C3FA042202A94FF422
:101D1000706001F0BDFA05B000BD2DE9F041054647
:101D20000E460027FFF7C0FFF5B100BF00240AE010
:101D3000285D384447B2102F03DD4FF0FF30BDE877
:101D4000F081601C44B2082CF2DB00240AE0295D1B
:101D5000A200521C4FF4F85303EBC20001F01CFA2E
:101D6000601C44B2082CF2DBFEB10027002409E01D
:101D7000305D384447B2102F02DD4FF0FF30DEE710
:101D8000601C44B2082CF3DB00240CE0340000207B
:101D9000315DA200521C4FF4F05303EBC20001F07E
:101DA000FBF9601C44B2082CF2DB0020C7E72DE9E8
:101DB000FC4106460C460025002000900190102EA4
:101DC00079D2DFE806F0080B1A161E2226323F51A0
:101DD00054585C5D616CFFF767FF6FE01CB10094C5
:101DE000009808300190DDE90001FFF796FFBDE89B
:101DF000FC812088FFF73AFF60E0FFF722FF208098
:101E00005CE02088FFF70EFF58E0FFF7F7FE208028
:101E100054E0208801124FF4985001F0BDF9217868
:101E20004FF4A05001F0B8F948E04FF4A05001F091
:101E30007BF907464FF4985001F076F907EB002044
:101E400020803BE08248807820708148C0786070B4
:101E50007F480079A0707E484079E0707C488079A6
:101E600020710020607129E0FFF714FE26E0204673
:101E7000FFF798FE22E02046FFF758FE1EE01DE027
:101E80002078FFF721FEB2E7FFF7F5FDC5B268B293
:101E9000401C10B94FF0FF30A9E725700EE0FFF7A6
:101EA000DEFDC5B268B2401C18B94FF0FF309EE7A6
:101EB00001E0257002E04FF0FF3098E700BF0020FE
:101EC00095E770B504464FF4D85001F02DF9207015
:101ED0004FF4D05001F028F905464FF4C85001F0F6
:101EE00023F905EB0020608070BD10B50446217811
:101EF0004FF4D85001F050F9608801124FF4C850E7
:101F000001F04AF9A1784FF4D05001F045F910BD25
:101F100010B5002001F008F910BD70B50446002589
:101F200024F03A0008B1681E70BD002001F0FCF8F2
:101F3000054625432946002001F02EF90020F3E74D
:101F400010B50446062221464FF4106001F05CF9FA
:101F5000042204F10E01900101F056F9042204F16B
:101F60000A014FF4A06001F04FF90422A11D4FF4C3
:101F7000706001F049F937480078A074354841781D
:101F8000E17481782175C178617533480078A07556
:101F900010BD10B50446062221464FF4106001F032
:101FA00077F9042204F10E01900101F071F9042285
:101FB00004F10A014FF4A06001F06AF90422A11DA6
:101FC0004FF4706001F064F9A07C22490870E07C55
:101FD0004870207D8870607DC870A07D1E490870A3
:101FE00010BD70B505460C46062D1CD2DFE805F085
:101FF00003070B0F13172046FFF7CBFF16E0204611
:10200000FFF79EFF12E02078FFF787FF70BDFFF714
:102010007FFF20700AE02046FFF767FF06E02046BA
:10202000FFF74FFF02E04FF0FF30EFE700BF002067
:10203000ECE770B504464FF4385001F075F80546EA
:10204000C5F38000E070C5F34000A07070BD0000D3
:1020500034000020600000206400002010B5044619
:1020600000BF082C02DD4FF0FF3010BD00BFA10003
:10207000491C4FF4807202EBC100102101F08CF872
:1020800000BFA100491C4FF4807202EBC10001F0B7
:102090004BF80028F5D1A100491C4FF4007202EB67
:1020A000C1001F2101F078F80120A040F8490988FB
:1020B0008143F74801800120A040F6490988814307
:1020C000F44801800020F44921F81400F349085530
:1020D00000BFA100491C4FF4407202EBC10001F0A7
:1020E00023F80028F5D10120BFE7F8B504460E46D5
:1020F00017461D4600BF082C02DD4FF0FF30F8BD2B
:1021000000BF012E06D0022E10D0032E10D0042EB8
:102110000FD10CE0042269464FF4706001F074F8AE
:10212000009810B96FF00200E9E705E000BF00BFBA
:1021300002E06FF00400E2E700BF05F0040010B118
:102140006FF00500DBE705B3012E02D0022E1AD195
:1021500006E005F0210010B96FF00500CFE713E0AD
:1021600005F0200028B105F0800010B96FF00500DF
:10217000C5E705F0100028B105F0800010B96FF038
:102180000500BCE700E000BF00BF2046FFF766FF88
:1021900005F0F00242EA0601A200521C002303EB04
:1021A000C20000F0F9FF7FB9BD4807880088401CD5
:1021B000BB490880084600884FF6F071884203D179
:1021C0004FF44040B64908803912A200521C4FF427
:1021D000806303EBC20000F0DFFFF9B2A200521CE3
:1021E0004FF4806303EBC20202F5807000F0D4FF6D
:1021F000A100491C4FF4807202EBC100012100F0E4
:10220000CBFF00BFA100491C4FF4807202EBC1005C
:1022100000F08AFF0028F5D10120A0409C490988E0
:1022200081439B48018005F00100A040984909883E
:102230000843974908800120A040964909888143B6
:10224000944801800020944921F8140093490855CE
:1022500000BFA100491C4FF4407202EBC10000F026
:1022600063FF0028F5D060B249E710B5044600BF0F
:10227000082C02DD4FF0FF3010BD00BF00BFA100F1
:10228000491C002202EBC10000F04EFF00F00F00DD
:10229000012802D06FF00400EEE700BF00BFA100EC
:1022A000491C4FF4407202EBC10000F03DFF1328BF
:1022B00002D06FF00200DFE700BFA100491C4FF41D
:1022C000807202EBC100022100F066FF00BFA10096
:1022D000491C4FF4807202EBC10000F025FF00287A
:1022E000F5D105E02046FFF7B9FE6FF00300C3E724
:1022F000A100491C4FF4407202EBC10000F014FF32
:102300001428EFD10120B7E770B504460D461646F4
:1023100000BF082C02DD4FF0FF3070BD00BF00BFD2
:10232000A100491C002202EBC10000F0FDFE00F0FC
:102330000F00012802D06FF00400EEE700BF00BFDD
:10234000A100491C4FF4407202EBC10000F0ECFE0A
:10235000132802D06FF00200DFE700BF2978687809
:1023600061F31F200146A87861F31F200146E87839
:1023700061F31F200146481C00B111B96FF00B003A
:10238000CBE716B96FF00A00C7E7A100491C4FF46C
:10239000406202EBC1000422294600F079FF3112AD
:1023A000A200521C4FF4805303EBC20000F0F4FE75
:1023B000F1B2A200521C4FF4805303EBC20202F5AB
:1023C000807000F0E9FEA100491C4FF4807202EB1E
:1023D000C100042100F0E0FE00BFA100491C4FF441
:1023E000807202EBC10000F09FFE0028F5D10120B1
:1023F000A04027490988084008B100208DE722E065
:10240000A100491C4FF4007202EBC10000F08CFEE9
:1024100000F0080058B1A100491C4FF4007202EB13
:10242000C100082100F0B8FE6FF00C0075E7A100B4
:10243000491C4FF4407202EBC10000F075FE10B968
:102440006FF0030069E7A100491C4FF4407202EBF2
:10245000C10000F069FE1728D2D101205DE710B558
:10246000044600BF082C02DD4FF0FF3010BD00BF56
:1024700000BFA100491C002202EBC10000F054FE85
:1024800000F00F0001280DD06FF00400EEE700000F
:10249000680000206A000020400100206C0000203D
:1024A0006600002000BFA100491C4FF4807202EBBF
:1024B000C100082100F070FE00BFA100491C4FF4CC
:1024C000807202EBC10000F02FFE0028F5D1012040
:1024D000A040FE4909888143FC4801800120A040BA
:1024E000FB490988084008B10020BFE710E0A100BF
:1024F000491C4FF4007202EBC10000F015FE00F021
:10250000080028B12046FFF7A9FD6FF00C00ADE7E9
:10251000A100491C4FF4407202EBC10000F004FE20
:102520000028E4D10120A1E72DE9F04104468846C6
:1025300015460026002700BF082C02DD701EBDE8EE
:10254000F08100BF00BFA100491C002202EBC100C6
:1025500000F0EAFD00F00F00012802D06FF0040047
:10256000EDE700BF00BF15B96FF00D00E7E700BF52
:10257000A100491C4FF4407202EBC10000F0D4FDF1
:102580000646172E04D01C2E02D06FF00600D6E7A8
:102590000120A040CD490988084040B3A100491C52
:1025A0004FF4007202EBC10000F0BEFD00F01F0608
:1025B00006F0100080B1A100491C4FF4007202EB3C
:1025C000C100102100F0E8FD0120A040BF490988AA
:1025D0008143BE4801800AE006F0080028B1204689
:1025E000FFF73CFD6FF00C00A9E70020A7E7A10072
:1025F000491C4FF4F85202EBC10000F095FD4FF674
:10260000FF7101EA8027BD4200DD3D4623E0204600
:1026100000F080FE0746A100491C4FF4407202EB17
:10262000C10000F081FD0646172E07D01C2E05D0F4
:102630002046FFF713FD6FF0060080E70120A04061
:10264000A3490988084018B1BD4201DD002076E7A2
:10265000BD4200DC00E0DAE700BF2A4641462046E2
:1026600000F0C4FEA100491C4FF4807202EBC100CF
:10267000202100F091FD00BFA100491C4FF48072A1
:1026800002EBC10000F050FD0028F5D10120A04070
:102690008E49098808438D49088028464FE72DE96F
:1026A000F0470446884616460027002500BF082C40
:1026B00002DD681EBDE8F08700BF00BFA100491C15
:1026C000002202EBC10000F02FFD00F00F000128F6
:1026D00002D06FF00400EDE700BF00BF16B96FF045
:1026E0000D00E7E700BFA100491C4FF4F05202EBD8
:1026F000C10000F019FD4FF6FF7101EA8025B542D7
:1027000000DA2E4638E0204600F03AFE0546A100E9
:10271000491C4FF4407202EBC10000F005FD074672
:10272000172F1ED01C2F16D105B126E0204600F031
:10273000F1FD8146A100491C4FF4F85202EBC100A3
:1027400000F0F2FCB9EB802F0BD12046FFF786FC9E
:102750006FF00600AEE72046FFF780FC6FF0060042
:10276000A8E70120A0405A490988084010B10DB9D6
:1027700000209FE705B100E0C5E700BFB54200DAE1
:102780002E4632464146204600F072FEA100491C0A
:102790004FF4807202EBC100402100F0FDFC00BF4D
:1027A000A100491C4FF4807202EBC10000F0BCFC98
:1027B0000028F5D130467DE72DE9F05F04468B46D1
:1027C00015461E46DDF828A00027B84600BF082C95
:1027D00002DD781EBDE8F09F00BFA100491C002269
:1027E00002EBC10000F0A0FC00F00F00022804D0B2
:1027F000032804D0042803D100E000BF00BF02E09A
:102800006FF00400E6E700BF00BF15B96FF00D00E0
:10281000E0E700BF96F80090707869F31F208146CA
:10282000B07869F31F208146F07869F31F20814654
:10283000B9F1000F0DD1A100491C002202EBC1002B
:1028400000F072FC00F00400042802D06FF00B00CE
:10285000C0E7BAF1000F0DD1A100491C002202EB24
:10286000C10000F061FC00F00400042802D06FF009
:102870000A00AFE7A100491C4FF4407202EBC1000F
:1028800000F052FC0746422F06D0222F04D0322FF0
:1028900002D06FF006009DE7A100491C4FF4406292
:1028A00002EBC1000422314600F0F2FC4FEA2A217B
:1028B000A200521C4FF4805303EBC20000F06CFCEA
:1028C0000AF0FF01A200521C04E000006A00002090
:1028D000680000204FF4805303EBC20202F58070C1
:1028E00000F05AFCA100491C4FF4F85202EBC10061
:1028F00000F01AFC4FF6FF7101EA8028454500DD23
:1029000045461CE0204600F005FD8046A100491C1C
:102910004FF4407202EBC10000F006FC10B96FF0FA
:10292000030057E70120A040F8490988084018B182
:10293000454501DD00204DE7454500DC00E0E1E7CD
:1029400000BF2A465946204600F050FDA100491C10
:102950004FF4807202EBC100202100F01DFC00BF8B
:10296000A100491C4FF4807202EBC10000F0DCFBB7
:102970000028F5D125E0A100491C4FF4007202EBBC
:10298000C10000F0D1FB00F01F0707F0100048B1B4
:10299000A100491C4FF4007202EBC100102100F0AD
:1029A000FBFB0FE007F0080058B1A100491C4FF4F1
:1029B000007202EBC100082100F0EEFB6FF00C008A
:1029C00008E7D8E700BF284604E72DE9FC4704469E
:1029D0008A4616461D46DDF82880002700BF082CD1
:1029E00002DD781EBDE8FC8700BFA100491C002263
:1029F00002EBC10000F098FB814600F00F000228B6
:102A000004D0032803D0042803D101E000BF00BF95
:102A100002E06FF00400E5E700BF00BF16B96FF0F9
:102A20000D00DFE700BFBA4830F81400E8B91AE03B
:102A3000204600F0A5FC0746A100491C4FF4407257
:102A400002EBC10000F070FB10B96FF00300C9E7A2
:102A50000120A040AD490988084010B10FB90020FD
:102A6000C0E707B100E0E3E700BF09F00700022874
:102A700004D003287ED004287DD158E0A44830F843
:102A80001400E8BB08226946204600F0F1FCA100D2
:102A9000491C4FF4807202EBC100402100F07CFB26
:102AA00000BFA100491C4FF4807202EBC10000F08E
:102AB0003BFB0028F5D19DF8000028709DF801002F
:102AC00068709DF80200A8709DF80300E8709DF8FA
:102AD0000400A8F800009DF8050098F8001000EB2D
:102AE0000120A8F800009DF80600894921F814008B
:102AF0009DF8070011F8141000EB0120844900E054
:102B000004E021F81400802082490855804830F8FC
:102B10001400B04201DD374602E07D4830F8147001
:102B20003E463A465146204600F0A2FCA1E07848D5
:102B300030F81400B8BB02226946204600F098FC29
:102B4000A100491C4FF4807202EBC100402100F04B
:102B500023FB00BFA100491C4FF4807202EBC100AF
:102B600000F0E2FA0028F5D19DF80000684921F84C
:102B7000140001E02BE074E09DF8010011F814103E
:102B800000EB0120801E624921F81400084630F84D
:102B9000140040F2EA51884206DD2046FFF75EFA53
:102BA0006FF47A701EE702E080205A4908555848B1
:102BB00030F81400B04201DD374602E0544830F8E6
:102BC00014703A465146204600F052FC51E05048FD
:102BD00030F81400A8BB06226946204600F048FCE5
:102BE000A100491C4FF4807202EBC100402100F0AB
:102BF000D3FA00BFA100491C4FF4807202EBC10060
:102C000000F092FA0028F5D19DF8000028709DF898
:102C1000010068709DF80200A8709DF80300E8703C
:102C20009DF804003A4921F814009DF8050011F8B8
:102C3000141000EB0120364921F81400802035499A
:102C40000855334830F81400B04201DD374602E041
:102C50002F4830F814703A465146204600F008FCE0
:102C600007E03946204600F045FC294820F814705A
:102C700000BF00BFA100491C4FF4807202EBC100ED
:102C8000402100F089FA00BFA100491C4FF4807276
:102C900002EBC10000F048FA0028F5D11C4830F8DA
:102CA0001400C01B1A4921F81400084630F814001B
:102CB00030B11848005D40F001001649085502E0A7
:102CC00000201449085538468CE62DE9F0410446A9
:102CD0000E461546002700BF082C02DD781EBDE811
:102CE000F08100BF082E77D2DFE806F004232A38EF
:102CF000465864772F78012F0ED10120A040034958
:102D0000098808430149088012E00000680000209B
:102D1000400100206C0000203FB90120A040FA498A
:102D200009888143F848018002E06FF00900D6E786
:102D300062E0F5480088204100F0010028705BE067
:102D4000A100491C4FF4F85202EBC10000F0ECF96D
:102D50004FF6FF7101EA802028804DE0A100491C58
:102D60004FF4F05202EBC10000F0DEF94FF6FF71B4
:102D700001EA802028803FE028781F2802DD6FF0DC
:102D80000900ACE72A7802F01F01A200521C4FF4A0
:102D9000007303EBC20000F0FFF92DE0A100491C15
:102DA0004FF4007202EBC10000F0BEF900F01F000A
:102DB000287021E028781F2802DD6FF009008EE7D7
:102DC0002A7802F01F01A200521C4FF4305303EB8B
:102DD000C20000F0E1F90FE00BE0A100491C4FF444
:102DE000305202EBC10000F09FF900F01F00287084
:102DF00002E06FF0090072E700BF01206FE770B5D5
:102E000004460E46154600BF082C02DD4FF0FF3089
:102E100070BD00BF082E76D2DFE806F0B2040E18AF
:102E20002E394F982978A200521C4FF4B05303EB6F
:102E3000C20000F0B1F9A6E02978A200521C4FF4BC
:102E4000A85303EBC20000F0A7F99CE02A881112F6
:102E5000A200521C4FF4905303EBC20000F09CF907
:102E60002978A200521C4FF4905303EBC20202F5E2
:102E7000807000F091F986E0A100491C4FF4406297
:102E800002EBC1000422294600F002FA7BE02A8806
:102E90001112A200521C4FF4805303EBC20000F049
:102EA0007BF92978A200521C4FF4805303EBC20235
:102EB00002F5807000F070F965E000BFA100491CC8
:102EC000002202EBC10000F02FF900F00F000128F2
:102ED00002D06FF004009BE700BFA100491C4FF433
:102EE0003C5202EBC10000F01FF910B16FF001007D
:102EF0008EE7A100491C4FF4807202EBC100222131
:102F000000F04AF917E03BE0A100491C4FF40072C1
:102F100002EBC10000F008F900F0080058B1A10070
:102F2000491C4FF4007202EBC100082100F034F993
:102F30006FF00C006CE7A100491C4FF4807202EBAB
:102F4000C10000F0F1F80028DED11CE000BFA100B4
:102F5000491C002202EBC10000F0E6F800F00F006F
:102F6000012802D06FF0040052E700BF2978A200C8
:102F7000521C4FF43C5303EBC20000F00DF902E089
:102F80006FF0090044E700BF012041E72DE9F0415F
:102F900004460E46154600BF082C03DD4FF0FF30F7
:102FA000BDE8F08100BF0D2E6FD2DFE806F00712FA
:102FB0001C263D48B55F7A7F848EA200A100491C83
:102FC000002202EBC10000F0AFF800F0F000287022
:102FD000A5E0A100491C4FF4B05202EBC10000F083
:102FE000A3F828709BE0A100491C4FF4A85202EB03
:102FF000C10000F099F8287091E0A100491C4FF43D
:10300000905202EBC10101F5807000F08DF8074687
:10301000A100491C4FF4905202EBC10000F084F86B
:1030200007EB002028807AE0A100491C4FF44062A1
:1030300002EBC1000422294600F0E6F86FE0A1008F
:10304000491C4FF4805202EBC10101F5807000F081
:103050006BF80746A100491C4FF4805202EBC100F7
:1030600000F062F807EB0020288058E000BFA100C4
:10307000491C002202EBC10000F056F800F00F00DE
:10308000012803D06FF004008AE745E000BFA100EB
:10309000491C4FF43C5202EBC10000F045F8288077
:1030A0003DE0204600F036F9288038E0204600F068
:1030B00067F9288033E0A100491C4FF4407202EB0D
:1030C000C10000F031F8287029E0A100491C00225D
:1030D00002EBC10000F028F800F0010020B120460A
:1030E00000F04EF9288003E0084830F814002880EA
:1030F00015E0A100491C002202EBC10000F014F809
:10310000012805D1801F4BE7680000204001002006
:103110000448005D287002E06FF0010040E700BF46
:1031200001203DE76C00002038B50446FE49C86820
:103130008047FD494869804700BFFB48406A10B19D
:10314000F948806A70B9F848016AC4F307408847B3
:10315000F548016AC4F307208847E0B2F24A116AD1
:1031600088470DE0200C8DF80000200A8DF8010042
:10317000E0B28DF80200EC480321826A684690476D
:10318000E949C86980470546E74988698047E649B3
:1031900008698047284638BD38B504460D46E249DF
:1031A000C8688047E0494869804744F00404DE4825
:1031B000806A90B9DC48016AC4F307408847DA485E
:1031C000016AC4F307208847E0B2D74A116A8847EA
:1031D000D548016A284688470FE0200C8DF800008A
:1031E000200A8DF80100E0B28DF802008DF803503E
:1031F000CD480421826A68469047CB498869804758
:10320000C9490869804738BDF8B504460E461746D7
:10321000C549C8688047C4494869804700BFC2485B
:10322000406A10B1C048806AC0B9BF48016AC4F39F
:1032300007408847BC48016AC4F307208847E0B2CA
:10324000B94A116A8847002505E0B749C86980472F
:103250007055681C85B2BD42F7DB12E0200C8DF87A
:103260000000200A8DF80100E0B28DF80200AE489F
:103270000321826A68469047AB483946426A304625
:103280009047A94988698047A74908698047F8BDE0
:10329000F8B504460E461746A349C8688047A249B8
:1032A0004869804744F004049F48806AC0B99E483A
:1032B000016AC4F3074088479B48016AC4F30720AA
:1032C0008847E0B2984A116A8847002505E0705D9A
:1032D000954A116A8847681C85B2BD42F7DB12E047
:1032E000200C8DF80000200A8DF80100E0B28DF866
:1032F00002008D480321826A684690478A48394611
:10330000826A3046904788498869804786490869BB
:103310008047F8BD70B504460025002600BFA10017
:10332000491C4FF4005202EBC100FFF7FDFE0646B8
:10333000A100491C4FF4005202EBC10101F580705D
:10334000FFF7F2FE00EB062086B2AEB1A100491CE9
:103350004FF4005202EBC100FFF7E6FE0546A10064
:10336000491C4FF4005202EBC10101F58070FFF7D8
:10337000DBFE00EB052085B2B542D0D1284670BDFA
:1033800070B504460025002600BFA100491C4FF47B
:10339000185202EBC100FFF7C7FE0646A100491C08
:1033A0004FF4185202EBC10101F58070FFF7BCFE2B
:1033B00000EB062086B2AEB1A100491C4FF41852B2
:1033C00002EBC100FFF7B0FE0546A100491C4FF417
:1033D000185202EBC10101F58070FFF7A5FE00EB6A
:1033E000052085B2B542D0D1284670BD2DE9F04701
:1033F00004460F4616460025A8460EB9BDE8F087DC
:10340000A100491C4FF4105202EBC10101F580707C
:10341000FFF78AFE8146A100491C4FF4105202EBCF
:10342000C100FFF781FE09EB002085B22902A00050
:10343000801C01EBC008324639464046FFF728FFA2
:10344000A81985B22912A200521C4FF4105303EBA5
:10345000C200FFF7A1FEE9B2A200521C4FF41053C4
:1034600003EBC20202F58070FFF796FE00BFC5E7CE
:103470002DE9F04704460F4616460025A8460EB92A
:10348000BDE8F087A100491C4FF4205202EBC101B6
:1034900001F58070FFF748FE8146A100491C4FF4FA
:1034A000205202EBC100FFF73FFE09EB002085B27E
:1034B0002902A000C01C01EBC00832463946404634
:1034C000FFF7A2FEA81985B22912A200521C4FF4E0
:1034D000205303EBC200FFF75FFEE9B2A200521CCB
:1034E0004FF4205303EBC20202F58070FFF754FE45
:1034F00000BFC5E72DE9F04104460E460025A100B6
:10350000491C4FF4205202EBC10101F58070FFF716
:103510000BFE0746A100491C4FF4205202EBC100EC
:10352000FFF702FE02E000003400002007EB00205D
:1035300085B2A81985B22912A200521C4FF420535B
:1035400003EBC200FFF728FEE9B2A200521C4FF4C1
:10355000205303EBC20202F58070FFF71DFEBDE8A9
:10356000F08100002DE9FF5F044688469246002660
:103570000027A100491C4FF4407202EBC100FFF785
:10358000D3FD002873D0132872D0172802D01C282E
:103590006FD174E0A100491C4FF4007202EBC1002E
:1035A000FFF7C2FD00F00100002838D0A100491C3F
:1035B0004FF4406202EBC100042203A9FFF724FE8E
:1035C000A100491C4FF4805202EBC10101F580704B
:1035D000FFF7AAFD8346A100491C4FF4805202EB7D
:1035E000C100FFF7A1FD0BEB00201FFA80F99DF849
:1035F0000F009DF80E10CDE9010900919DF80D30E6
:103600009DF80C202146BEA000F00CFAA100491C38
:103610004FF4007202EBC1000121FFF7BDFD20460F
:10362000FFF7AEFE061E29DDB6F5806F01DD4FF413
:103630008066324641462046FFF731F80546002DA8
:1036400003DC284604B0BDE8F09FAEB2002713E0CB
:10365000F01B82B208EB07012046FEF765FF054626
:10366000002D07DA2046FEF7F9FC2846EAE721E0BC
:1036700012E02BE0781987B2BE42E9D127E020465C
:10368000FEF7EDFE0546012801D02846DAE721467F
:10369000A4A000F0C7F91AE052462146A6A000F007
:1036A000C1F92046FEF7E1FD0546012801D0284674
:1036B000C8E70CE00023524601212046FEF715FD25
:1036C0000546A04201D02846BCE700E000BF00BF8D
:1036D0000120B7E72DE9FE4F06468A4614461F46ED
:1036E0004FF00008C146B100491C4FF4407202EB94
:1036F000C100FFF719FD00287DD0132866D01728D8
:1037000002D01C2878D154E0B100491C4FF400725B
:1037100002EBC100FFF708FD00F0010098B1E0786E
:10372000A178CDE9010700916378227831468DA018
:1037300000F078F9B100491C4FF4007202EBC100AF
:103740000121FFF729FD3046FFF71AFEB0F100080E
:103750002EDDB8F5806F01DD4FF48068424651469A
:103760003046FEF79CFF0546514688A000F05AF906
:10377000002D02DC2846BDE8FE8F1FFA85F84FF0C9
:10378000000913E0A8EB090082B20AEB09013046F8
:10379000FEF7CAFE0546002D04DA3046FEF75EFC51
:1037A0002846E8E709EB05001FFA80F9C845E9D18A
:1037B00043E03046FEF753FE0546012801D0284677
:1037C000D9E7314657A000F02DF936E0E078A1782E
:1037D000CDE9010700916378227831466DA000F0B1
:1037E00021F93A4621463046FEF78EFD054601286E
:1037F00003D02846BFE701E01EE01EE03046FEF79A
:103800002DFC6F4802880088401C6D4B18800023F7
:1038100001213046FEF769FC0546B0420BD06848EE
:1038200000884FF6FF71884203D14CF25030644952
:10383000088028469FE700E000BF00BF01209AE70C
:103840002DE9FE43074688469146B900491C4FF4CE
:10385000407202EBC100FFF767FC00283BD0222832
:103860004AD13846FFF78CFD051E33DDB5F5806F74
:1038700001DD4FF4806501A802AB2A464146009065
:103880003846FFF7A2F80446002C07DC22463946EA
:103890004CA000F0C7F82046BDE8FE83A5B2002684
:1038A00016E0BDF804000090A81B82B208EB0601E8
:1038B00002AB3846FEF780FF0446002C06DA2246AB
:1038C000394647A000F0AEF82046E5E7301986B249
:1038D000AE42E6D111E000234A4602213846FEF707
:1038E00004FC0446B84201D02046D5E74A46394692
:1038F00041A000F097F800E000BF00BF0120CBE737
:1039000025643A436F6E6E6563746564202D2025CF
:10391000642E25642E25642E2564203A2025640D0E
:103920000A00000025643A536F636B657420436C92
:103930006F7365640D0A000025643A4C6973746501
:103940006E2C2054435020736572766572206C6F24
:103950006F706261636B2C20706F7274205B2564E2
:103960005D0D0A0025643A436F6E6E65637465648D
:1039700020746F202D2025642E25642E25642E258D
:1039800064203A2025640D0A0000000025730D0A0A
:103990000000000025643A54727920746F20636F30
:1039A0006E6E65637420746F207468652025642EC4
:1039B00025642E25642E2564203A2025640D0A00F6
:1039C0007400002025643A207265637666726F6D1C
:1039D000206572726F722E20256C640D0A00000043
:1039E00025643A2073656E64746F206572726F721D
:1039F0002E20256C640D0A0025643A4F70656E65B3
:103A0000642C20554450206C6F6F706261636B2C86
:103A100020706F7274205B25645D0D0A0000000049
:103A2000704700000FB4044910B503AA029800F0D3
:103A30001BFA10BC5DF814FB1800002070B504469A
:103A400085690068C10601D5302600E02026C00740
:103A500007D070BDD4E9012130469047206A401C50
:103A600020626D1EF6D570BD70B50446856900787C
:103A7000C00707D170BDD4E9012120209047206AFA
:103A8000401C20626D1EF6D570BD70B50C46054613
:103A9000012A05D02878800600D5EA69002302E0D3
:103AA000012305E05B1C934202D2E05C0028F9D1BF
:103AB000A869E618C01AA861286A1844286228462E
:103AC000FFF7BCFF04E0D5E9012114F8010B904792
:103AD000B442F8D32846FFF7C7FF70BD2DE9F04187
:103AE0000646002410687529314616A510D0AFF39C
:103AF0000080002802DA404213A507E031688A07F7
:103B000001D512A502E0490704D511A5012401E061
:103B1000AFF3008000210A2206F1240709E0B0FB80
:103B2000F2FCB0FBF2F302FB1C0030307854184674
:103B3000491C0028F3D123462A463046BDE8F0410F
:103B400000F023B9000000002D0000002B00000051
:103B50002000000070B504460D4621461068AFF302
:103B600000802188090502D50F4A7A4402E00E4AF6
:103B70007A440E32002104F1240305E000F00F0620
:103B80000009965D5E54491C0028F7D12078002377
:103B9000000704D5702D02D009B10223113220464E
:103BA000BDE8704000F0F1B8C80300002DE9F05FF7
:103BB000894604464FF0000ADFF874B1FB44C0F8B0
:103BC00020A02046E1688847002874D0252806D028
:103BD000D4E901219047206A401C2062F1E70026C9
:103BE0005F462046E16888472028054607DB312DDF
:103BF00005D2781910F8200C08B10643F1E7B00798
:103C000001D526F00406C4F81CA00027C4F818A0AB
:103C10002A2D09D0284600F087F938B304EB87082D
:103C2000303DC8F8185019E059F8041B204604EB41
:103C300087029161E1688847012F054618D1E06944
:103C4000002820DA26F020061DE0D8F8180000EB46
:103C5000800005EB40003038C8F818002046E168C5
:103C60008847054600F060F90028EED1012F0AD000
:103C70002E2D08D12046E16888477F1C0546022F7B
:103C800046F02006C4DBA069002803DA404246F073
:103C90000106A061F00701D026F010066C2D0BD0B4
:103CA000682D09D04C2D39D06A2D35D0742D35D0E2
:103CB0007A2D33D016E038E0E1682F462046884759
:103CC000B842054609D16C2F26D04FF48060E168D8
:103CD000064320468847054604E06C2F1AD04FF46F
:103CE000807006430DB3A5F14100192802D8203594
:103CF00046F400664A462946204626604E46FCF7B2
:103D000051FA80B101280BD0F61D26F0070000F112
:103D1000080956E74020E4E78020D8E70020D6E7EE
:103D200006F104094DE7284652E7206ABDE8F09FF6
:103D30009E0300004FF0000200B5134694469646DD
:103D4000203922BFA0E80C50A0E80C50B1F12001AE
:103D5000BFF4F7AF090728BFA0E80C5048BF0CC05C
:103D60005DF804EB890028BF40F8042B08BF7047BA
:103D700048BF20F8022B11F0804F18BF00F8012B2C
:103D8000704770477047704770472DE9F0470D4600
:103D900099469246044600F124080168880604D535
:103DA000E06921F01001216000E00120A84201DD5E
:103DB000471B00E00027A1697A1902EB0900081AE5
:103DC000A0612078C00602D42046FFF737FE002607
:103DD00008E0D4E901211AF806009047206A401C47
:103DE000761C20624E45F4DB2078C0060AD52046BA
:103DF000FFF724FE06E0D4E9012130209047206A35
:103E0000401C2062381EA7F10107F4DC07E0D4E96A
:103E1000012118F805009047206A401C2062281EE6
:103E2000A5F10105F3DC2046FFF71EFE2078000611
:103E300002D50220BDE8F0870120FBE710B54369F9
:103E400013B1AFF3008001E0FFF71FFE012010BDAA
:103E5000127800F124010A7000224A700122EDE775
:103E600011684FF0FF32E9E7074B70B50D467B4410
:103E700000F011F80446284600F020F810B14FF089
:103E8000FF3070BD204670BDA9CAFFFF01694A1C02
:103E900002610878704700B58FB0CDE9013100218B
:103EA000059105497944CDE9031011466846FFF7AD
:103EB0007DFE0FB000BD0000E5FFFFFF007B00F0BE
:103EC00080007047754600F02BF8AE460500694645
:103ED000534620F00700854618B020B5FCF7C8FD12
:103EE000BDE820404FF000064FF000074FF00008FB
:103EF0004FF0000B21F00701AC46ACE8C009ACE87C
:103F0000C009ACE8C009ACE8C0098D46704710B5DF
:103F10000446AFF300802046BDE81040FCF75AB9D4
:103F2000004870475001002030380A2801D2012093
:103F300070470020704730313233343536373839E6
:103F400041424344454640305800303132333435E5
:103F50003637383961626364656640307800040042
:103F60000008000000000000000200010000100036
:103F7000903F000800000020780000006C0100085D
:103F80000840000878000020380700008801000879
:103F900000A24A0400000000000000000102030427
:103FA00006070809000000000000000000000000F3
:103FB00000000102030401020304060708090204C9
:103FC00006080000010257353530300000000000BF
:103FD0008519000887190008891900088B1900083D
:103FE0008D1900089319000800000000000000006F
:103FF00000000000000000C0000000000000000001
:084000000000000050C30000A5
:0400000508000131BD
:00000001FF
